{
  "address": "0x71fCec7Bdf90C0AAd2D9fEC48Bb9507E067A304f",
  "abi": [
    {
      "inputs": [
        {
          "internalType": "address",
          "name": "_factory",
          "type": "address"
        },
        {
          "internalType": "address",
          "name": "_vault",
          "type": "address"
        },
        {
          "internalType": "address",
          "name": "_mtr",
          "type": "address"
        },
        {
          "internalType": "address",
          "name": "_mtrg",
          "type": "address"
        }
      ],
      "stateMutability": "nonpayable",
      "type": "constructor"
    },
    {
      "anonymous": false,
      "inputs": [
        {
          "indexed": false,
          "internalType": "uint256",
          "name": "mtrAmountIn",
          "type": "uint256"
        },
        {
          "indexed": false,
          "internalType": "uint256",
          "name": "mtrgAmountOut",
          "type": "uint256"
        }
      ],
      "name": "LogMTRGBought",
      "type": "event"
    },
    {
      "anonymous": false,
      "inputs": [
        {
          "indexed": true,
          "internalType": "address",
          "name": "previousOwner",
          "type": "address"
        },
        {
          "indexed": true,
          "internalType": "address",
          "name": "newOwner",
          "type": "address"
        }
      ],
      "name": "OwnershipTransferred",
      "type": "event"
    },
    {
      "inputs": [],
      "name": "buybackMTRG",
      "outputs": [],
      "stateMutability": "nonpayable",
      "type": "function"
    },
    {
      "inputs": [],
      "name": "claimOwnership",
      "outputs": [],
      "stateMutability": "nonpayable",
      "type": "function"
    },
    {
      "inputs": [],
      "name": "factory",
      "outputs": [
        {
          "internalType": "contract IUniswapV2Factory",
          "name": "",
          "type": "address"
        }
      ],
      "stateMutability": "view",
      "type": "function"
    },
    {
      "inputs": [],
      "name": "owner",
      "outputs": [
        {
          "internalType": "address",
          "name": "",
          "type": "address"
        }
      ],
      "stateMutability": "view",
      "type": "function"
    },
    {
      "inputs": [],
      "name": "pendingOwner",
      "outputs": [
        {
          "internalType": "address",
          "name": "",
          "type": "address"
        }
      ],
      "stateMutability": "view",
      "type": "function"
    },
    {
      "inputs": [
        {
          "internalType": "address",
          "name": "newOwner",
          "type": "address"
        },
        {
          "internalType": "bool",
          "name": "direct",
          "type": "bool"
        },
        {
          "internalType": "bool",
          "name": "renounce",
          "type": "bool"
        }
      ],
      "name": "transferOwnership",
      "outputs": [],
      "stateMutability": "nonpayable",
      "type": "function"
    },
    {
      "inputs": [],
      "name": "vault",
      "outputs": [
        {
          "internalType": "address",
          "name": "",
          "type": "address"
        }
      ],
      "stateMutability": "view",
      "type": "function"
    }
  ],
  "transactionHash": "0x7ea9e9970060c6c79d4cd03f6c743a1f290655b321c28ad9822b90f7b47fd5e0",
  "args": [
    "0x56aD9A9149685b290ffeC883937caE191e193135",
    "0xdeadbeefdeadbeefdeadbeefdeadbeefdeadbeef",
    "0x687a6294d0d6d63e751a059bf1ca68e4ae7b13e2",
    "0x228ebbee999c6a7ad74a6130e81b12f9fe237ba3"
  ],
  "solcInputHash": "4a62d09aab8a4b2492d676fa9c3241f4",
  "bytecode": "0x61010060405234801561001157600080fd5b50604051610cf8380380610cf88339818101604052608081101561003457600080fd5b5080516020820151604080840151606090940151600080546001600160a01b0319163390811782559251949593949192917f8be0079c531659141344cd1fd0a4f28419497f9722a3daafe3b4186f6b6457e0908290a36001600160601b0319606094851b811660805292841b831660a05290831b821660c05290911b1660e05260805160601c60a05160601c60c05160601c60e05160601c610bf4610104600039806104d852508061039e52806104445250806104ae52806104fa525080610315528061052a5250610bf46000f3fe608060405234801561001057600080fd5b506004361061007d5760003560e01c8063c45a01551161005b578063c45a0155146100e6578063e30c3978146100ee578063e9aea332146100f6578063fbfa77cf146100fe5761007d565b8063078dfbe7146100825780634e71e0c8146100ba5780638da5cb5b146100c2575b600080fd5b6100b86004803603606081101561009857600080fd5b506001600160a01b03813516906020810135151590604001351515610106565b005b6100b8610242565b6100ca610304565b604080516001600160a01b039092168252519081900360200190f35b6100ca610313565b6100ca610337565b6100b8610346565b6100ca6104ac565b6000546001600160a01b03163314610165576040805162461bcd60e51b815260206004820181905260248201527f4f776e61626c653a2063616c6c6572206973206e6f7420746865206f776e6572604482015290519081900360640190fd5b8115610221576001600160a01b03831615158061017f5750805b6101c8576040805162461bcd60e51b81526020600482015260156024820152744f776e61626c653a207a65726f206164647265737360581b604482015290519081900360640190fd5b600080546040516001600160a01b03808716939216917f8be0079c531659141344cd1fd0a4f28419497f9722a3daafe3b4186f6b6457e091a3600080546001600160a01b0319166001600160a01b03851617905561023d565b600180546001600160a01b0319166001600160a01b0385161790555b505050565b6001546001600160a01b03163381146102a2576040805162461bcd60e51b815260206004820181905260248201527f4f776e61626c653a2063616c6c657220213d2070656e64696e67206f776e6572604482015290519081900360640190fd5b600080546040516001600160a01b03808516939216917f8be0079c531659141344cd1fd0a4f28419497f9722a3daafe3b4186f6b6457e091a3600080546001600160a01b039092166001600160a01b0319928316179055600180549091169055565b6000546001600160a01b031681565b7f000000000000000000000000000000000000000000000000000000000000000081565b6001546001600160a01b031681565b33321461039a576040805162461bcd60e51b815260206004820152601860248201527f4d657465724d616b65723a206d7573742075736520454f410000000000000000604482015290519081900360640190fd5b60007f00000000000000000000000000000000000000000000000000000000000000006001600160a01b03166370a08231306040518263ffffffff1660e01b815260040180826001600160a01b0316815260200191505060206040518083038186803b15801561040957600080fd5b505afa15801561041d573d6000803e3d6000fd5b505050506040513d602081101561043357600080fd5b5051905080156104a95760006104697f0000000000000000000000000000000000000000000000000000000000000000836104d0565b604080518481526020810183905281519293507f7f24bc647bbbea6de108338c1c6f28069dbb252531317633cb55e31d3eb0d357929081900390910190a1505b50565b7f000000000000000000000000000000000000000000000000000000000000000081565b600061051e837f0000000000000000000000000000000000000000000000000000000000000000847f0000000000000000000000000000000000000000000000000000000000000000610525565b9392505050565b6000807f00000000000000000000000000000000000000000000000000000000000000006001600160a01b031663e6a4390587876040518363ffffffff1660e01b815260040180836001600160a01b03168152602001826001600160a01b031681526020019250505060206040518083038186803b1580156105a657600080fd5b505afa1580156105ba573d6000803e3d6000fd5b505050506040513d60208110156105d057600080fd5b505190506001600160a01b03811661062f576040805162461bcd60e51b815260206004820152601a60248201527f4d657465724d616b65723a2043616e6e6f7420636f6e76657274000000000000604482015290519081900360640190fd5b600080826001600160a01b0316630902f1ac6040518163ffffffff1660e01b815260040160606040518083038186803b15801561066b57600080fd5b505afa15801561067f573d6000803e3d6000fd5b505050506040513d606081101561069557600080fd5b5080516020909101516dffffffffffffffffffffffffffff918216935016905060006106c3876103e5610998565b9050836001600160a01b0316630dfe16816040518163ffffffff1660e01b815260040160206040518083038186803b1580156106fe57600080fd5b505afa158015610712573d6000803e3d6000fd5b505050506040513d602081101561072857600080fd5b50516001600160a01b038a811691161415610869576107538161074d856103e8610998565b90610a03565b61075d8284610998565b8161076457fe5b04945061077b6001600160a01b038a168589610a54565b604080516000808252602082019283905263022c0d9f60e01b835260248201818152604483018990526001600160a01b038a81166064850152608060848501908152845160a48601819052918a169563022c0d9f958c948e9491939092909160c4850191908083838b5b838110156107fd5781810151838201526020016107e5565b50505050905090810190601f16801561082a5780820380516001836020036101000a031916815260200191505b5095505050505050600060405180830381600087803b15801561084c57600080fd5b505af1158015610860573d6000803e3d6000fd5b5050505061098c565b6108798161074d846103e8610998565b6108838285610998565b8161088a57fe5b0494506108a16001600160a01b038a168589610a54565b604080516000808252602082019283905263022c0d9f60e01b835260248201888152604483018290526001600160a01b038a81166064850152608060848501908152845160a48601819052918a169563022c0d9f958c95948e9491939092909160c4850191908083838a5b8381101561092457818101518382015260200161090c565b50505050905090810190601f1680156109515780820380516001836020036101000a031916815260200191505b5095505050505050600060405180830381600087803b15801561097357600080fd5b505af1158015610987573d6000803e3d6000fd5b505050505b50505050949350505050565b60008115806109b3575050808202828282816109b057fe5b04145b6109fd576040805162461bcd60e51b8152602060048201526016602482015275536166654d6174683a204d756c204f766572666c6f7760501b604482015290519081900360640190fd5b92915050565b818101818110156109fd576040805162461bcd60e51b8152602060048201526016602482015275536166654d6174683a20416464204f766572666c6f7760501b604482015290519081900360640190fd5b604080516001600160a01b038481166024830152604480830185905283518084039091018152606490920183526020820180516001600160e01b031663a9059cbb60e01b178152925182516000946060949389169392918291908083835b60208310610ad15780518252601f199092019160209182019101610ab2565b6001836020036101000a0380198251168184511680821785525050505050509050019150506000604051808303816000865af19150503d8060008114610b33576040519150601f19603f3d011682016040523d82523d6000602084013e610b38565b606091505b5091509150818015610b66575080511580610b665750808060200190516020811015610b6357600080fd5b50515b610bb7576040805162461bcd60e51b815260206004820152601a60248201527f5361666545524332303a205472616e73666572206661696c6564000000000000604482015290519081900360640190fd5b505050505056fea2646970667358221220fbf166933f6708b428ccd035f6b7a5a2903ec1a5ceed7d5b781b3b42376780e864736f6c634300060c0033",
  "devdoc": {
    "kind": "dev",
    "methods": {},
    "version": 1
  },
  "userdoc": {
    "kind": "user",
    "methods": {},
    "version": 1
  },
  "storageLayout": {
    "storage": [
      {
        "astId": 267,
        "contract": "contracts/MeterMaker.sol:MeterMaker",
        "label": "owner",
        "offset": 0,
        "slot": "0",
        "type": "t_address"
      },
      {
        "astId": 269,
        "contract": "contracts/MeterMaker.sol:MeterMaker",
        "label": "pendingOwner",
        "offset": 0,
        "slot": "1",
        "type": "t_address"
      }
    ],
    "types": {
      "t_address": {
        "encoding": "inplace",
        "label": "address",
        "numberOfBytes": "20"
      }
    }
  }
}